:020000040800F2
:100000000030002011210008512000085320000872
:100010005520000857200008592000080000000063
:100020000000000000000000000000005B2000084D
:100030005D200008000000005F200008612000082B
:100040006121000861210008612100086121000888
:100050006121000861210008612100086121000878
:100060006121000861210008612100086121000868
:100070006121000861210008612100086121000858
:100080006121000861210008612100086121000848
:100090006121000861210008612100086121000838
:1000A0006121000861210008612100086121000828
:1000B00061210008612100080000000061210008A2
:1000C000612100080000000000000000612100081C
:1000D0000000000061210008612100086121000882
:1000E00061210008612100080000000000000000FC
:1000F0000000000000000000000000000000000000
:1001000000000000000000000000000000000000EF
:1001100000000000000000006121000861210008CB
:1001200000000000000000000000000000000000CF
:1001300000000000000000000000000000000000BF
:10014000612100086121000800000000000000009B
:10015000000000000000000000000000000000009F
:10016000000000000000000000000000000000008F
:10017000000000000000000000000000000000007F
:080180000000000061210008ED
:1001900010B5054C237833B9044B13B10448AFF3C1
:1001A00000800123237010BD7000002000000000BB
:1001B000902F000808B5034B1BB103490348AFF368
:1001C000008008BD0000000074000020902F00088F
:1001D00001F0FF01102A2BDB10F0070F08D010F8F8
:1001E000013B013A8B422DD010F0070F42B3F6D1FC
:1001F000F0B441EA012141EA014122F007047FF015
:1002000000070023F0E80256083C85EA010586EA6B
:10021000010685FA47F5A3FA87F586FA47F6A5FAA7
:1002200087F68EB9EED1F0BC01F0FF0102F00702B3
:1002300032B110F8013B013A83EA010313B1F8D15E
:100240000020704701387047002D06BF354603383F
:10025000073815F0010F07D1013015F4807F02BF78
:10026000013015F4C03F0130F0BC0138704700BFC9
:1002700010B504460E4B18784FF47A73B3FBF0F3C5
:100280000C4A1068B0FBF3F000F028FD68B90F2CA1
:1002900001D901200AE0002221464FF0FF3000F092
:1002A000E9FC034B5C60002000E0012010BD00BFB2
:1002B000000000200800002008B5074A136843F03A
:1002C00010031360032000F0C3FC0020FFF7D0FFF1
:1002D00001F042FE002008BD00200240034A1168E0
:1002E000034B1B780B441360704700BF9C00002039
:1002F00000000020014B1868704700BF9C000020E0
:1003000038B50446FFF7F6FF0546B4F1FF3F02D0CB
:10031000044B1B781C44FFF7EDFF401BA042FAD3AF
:1003200038BD00BF0000002038B50268936803F0B4
:100330000303012B01D0002038BD136813F0010F17
:100340002FD0936803F00D03012B09D0036C43F009
:1003500010030364436C43F0010343640120EBE7A3
:100360000446936843F002039360036803221A6013
:10037000FFF7C0FF054623689B6813F0010F0ED0FE
:10038000FFF7B8FF401B0228F5D9236C43F0100398
:100390002364636C43F0010363640120CCE7002015
:1003A000CAE70020C8E7000038B50268936803F088
:1003B0000303012B0DD09168184B19420FD0036C29
:1003C00043F010030364436C43F0010343640120D2
:1003D00038BD136813F0010FEDD00020F8E7044694
:1003E000936843F001039360FFF784FF0546236899
:1003F0001B6813F0010F0ED1FFF77CFF401B022892
:10040000F5D9236C43F010032364636C43F00103BC
:1004100063640120DCE70020DAE700BF3F000080D2
:1004200030B597B000230193002800F0F780044610
:10043000036C13F0100F52D1036CABB10020236892
:100440009A6812F0805F03D09B6813F0005F47D07A
:10045000236C23F0120343F010032364636C43F016
:100460000103636401203BE04364C364836480F858
:100470003C3001F089FD23689B6813F0805F01D058
:100480000020DCE72046FFF74FFF236C13F0100F2E
:10049000D5D10028D3D1236C23F4885323F0020351
:1004A00043F0020323642268936823F0405393606F
:1004B0002268936843F080539360594B1B68594AF4
:1004C000A2FB03239B0C03EB83035A00019202E07F
:1004D000019B013B0193019B002BF9D1AFE7002069
:1004E000236C13F0100F40F09080002840F08D80B6
:1004F00023689A6812F0040240F08780216C21F48E
:10050000817141F002012164B3F1A04F54D04FF04A
:10051000A0410291996801F0030101294FD0029B8B
:1005200023B1996801F0030101294DD03E498B6840
:1005300023F4403365682B438B60617E4B03656B0E
:10054000012D01D04FF480521343E2681343A26897
:10055000134394F82020012A3BD0A26A012A02D03A
:10056000E16A0A4313432268916811F00C0F0CD121
:10057000D16821F4804121F00201D160217E94F8FC
:100580003020520042EA813213432168CD68274A65
:100590002A401343CB602369012B2DD02268136BB3
:1005A00023F00F03136300236364236C23F003031E
:1005B00043F0010323642FE01D490291AAE71B6861
:1005C00013F0010FB9D1AAE71B6813F0010FB4D1E2
:1005D000ACE731B9626A013A43EA424343F48033FB
:1005E000BBE7226C22F0220242F020022264626CFD
:1005F00042F001026264B0E721680B6B23F00F0345
:10060000E269013A13430B63CDE7236C23F0120335
:1006100043F010032364012017B030BD0120FBE735
:100620000800002083DE1B430003005007C0F0FFDA
:100630000001005003689B6813F0040F72D190F81A
:100640003C30012B71D010B50446012380F83C30BA
:10065000FFF7AAFE034600285FD1226C22F47062E5
:1006600022F0010242F480722264314A926812F050
:100670001F0F17D02168B1F1A04F13D0226C42F4A4
:10068000801222642B4A91421BD14FF0A042D268C3
:1006900012F0007F15D0226C22F4405242F48052B6
:1006A00022640EE0226C22F4801222642268D26856
:1006B00012F0007F05D0226C22F4405242F48052A6
:1006C0002264226C12F4805F24D0626C22F0060255
:1006D0006264002284F83C2022681C211160144AC4
:1006E000926812F01F0F0FD0114A926802F01F0299
:1006F000052A09D00E4A926802F01F02092A03D087
:100700002268B2F1A04F0BD121688A6842F004023E
:100710008A6005E000226264DBE7002284F83C2066
:10072000184610BD0223184670470223FBE700BF9E
:1007300000030050000100502DE9F0414369082BEF
:1007400024D0414B9B6813F01F0F0FD10368DB6867
:1007500013F0010F01D10C2619E0036C43F02003C4
:100760000364002380F83C30012068E0364B9B682E
:1007700013F4404F01D10C2609E0036C43F0200331
:100780000364002380F83C30012058E008262E4BFB
:100790009B6813F01F0F07D00368B3F1A04F03D07D
:1007A0004FF0A043DF6801E00368DF680D460446B0
:1007B000FFF7A0FD804623681A68324212D1B5F1D6
:1007C000FF3FF8D02DB1FFF795FDA0EB0800A84240
:1007D000F1D9236C43F004032364002384F83C30F4
:1007E00003202CE0226C42F400722264DA6812F4D6
:1007F000406F1FD117F4005F1CD11A6812F0080F68
:1008000018D09A6812F0040F0CD1226C22F4807276
:100810002264226C12F4805F0CD1226C42F001023F
:10082000226407E0226C42F020022264626C42F0F3
:100830000102626417F4804F03D11E600020BDE8FE
:10084000F0810020FBE700BF000300500368186C34
:10085000704770B590F83C30012B3FD00D460446F0
:10086000012380F83C30FFF75FFD0646002830D1B9
:10087000012323642268936823F080439360012D51
:100880001BD02268936843F000439360FFF732FD6A
:10089000054623689B68002B15DAFFF72BFD401BEC
:1008A0000A28F6D9236C23F0120343F010032364C3
:1008B000002384F83C3001260EE02268936843F060
:1008C00080439360DDE7236C23F0030343F00103CF
:1008D0002364002384F83C30304670BD0226FBE7D9
:1008E00030B496B00022019290F83C20012A00F02A
:1008F000A4810346012280F83C200068826812F03F
:10090000040F40F08F814A68042A31D8046B02EB4F
:10091000420255001F22AA4024EA02020C68AC40A1
:10092000224302631868826812F00C0F68D10A68CB
:10093000092A4ED9846902EB42021E3A07259540E6
:1009400024EA05048D6805FA02F2224382614869AF
:100950001C68E268C2F3C102520000FA02F20869A0
:100960000138032800F28B80DFE800F04068737ED6
:10097000092A0ED8446B02EB420255001E3D1F228D
:10098000AA4024EA02020C6804FA05F52A434263ED
:10099000C8E70E2A0ED8846B02EB420255003C3D9C
:1009A0001F22AA4024EA02020C6804FA05F52A4331
:1009B0008263B7E7C46B02EB420255005A3D1F2227
:1009C000AA4024EA02020C6804FA05F52A43C2632D
:1009D000A8E7446902EB42020725954024EA050492
:1009E0008D6805FA02F222434261B0E7206E944D11
:1009F0000540086842EA8062154345F000452566D7
:100A00001868826802F00302012A6BD0CA68012AC2
:100A10006ED0D0F8B0200D680124AC4022EA040268
:100A2000C0F8B0200A68102A00F08B80112A00F06C
:100A3000A980122A00F0AC800020F8E0606E804DA2
:100A40000540086842EA8062154345F00045656646
:100A5000D6E7A06E7A4D0540086842EA80621543E9
:100A600045F00045A566CBE7E56E754828400D6862
:100A700042EA8562024342F00042E266C0E7226E2B
:100A800002F0F8420868B2EB806F1CD01868426E22
:100A900002F0F8420C68B2EB846F19D01868826ECD
:100AA00002F0F8420C68B2EB846F16D01868C26E80
:100AB00002F0F8420C68B2EB846FA1D1C26E22F052
:100AC0000042C2669CE7226E22F000422266DDE709
:100AD000426E22F000424266E0E7826E22F000425F
:100AE0008266E3E7026812F0010F8FD000209EE0DB
:100AF000D0F8B0200D680124AC402243C0F8B020EB
:100B00000A68092A0ED91D68A86902EB42021B3A3D
:100B10000724944020EA04008C6804FA02F202439D
:100B2000AA617FE71D686869013202EB420207246F
:100B3000944020EA04008C6804FA02F202436A61DD
:100B400070E74049896811F4000F7FF46FAF1868AF
:100B5000B0F1A04F23D04FF0A0410291816801F085
:100B6000030101291ED0029921B18C6804F003040D
:100B7000012C21D0102A24D0112A42D0122A4AD086
:100B8000002054E02F49896811F0807FDFD050E7C2
:100B90002C49896811F4800FD9D0002047E02A49F8
:100BA0000291DBE7016811F0010FDCD01A6C42F012
:100BB00020021A6401203AE0096811F0010FF5D112
:100BC000D8E7B0F1A04FD7D11E498A6842F400029D
:100BD0008A601E4A1268A1F14E61A1F58421A1F23A
:100BE0007D41A1FB0212920C02EB820251000191A5
:100BF00002E0019A013A0192019A002AF9D10020FB
:100C000015E0B0F1A04FB9D10E498A6842F0807268
:100C10008A6000200BE00B498A6842F480028A60F7
:100C2000002004E01A6C42F020021A640120002225
:100C300083F83C2016B030BC70470220FAE700BFB2
:100C400000F0FF8300030050000100500800002066
:100C5000074AD36823F4E0631B041B0C000200F472
:100C6000E060184340F0BF6040F40030D06070474F
:100C700000ED00E030B4174BDB68C3F30223C3F18F
:100C80000704042C28BF04241D1D062D18D9033B7E
:100C90004FF0FF3505FA04F421EA0401994005FA02
:100CA00003F322EA0303194300280BDB0901C9B24D
:100CB00000F1604000F5614080F8001330BC7047DF
:100CC0000023E5E700F00F000901C9B2024B1954F7
:100CD000F4E700BF00ED00E014ED00E00138B0F1F2
:100CE000807F0AD2064B5860064AF02182F8231012
:100CF0000020986007221A6070470120704700BFEB
:100D000010E000E000ED00E0F0B482B0002336E037
:100D1000032400E00024B4403C430235584E46F81A
:100D20002540584C2568D44304EA05064F6817F45B
:100D3000803F01D042EA0506524D2E606D6804EAFC
:100D400005064F6817F4003F01D042EA05064D4DF5
:100D50006E60AD6804EA05064F6817F4801F01D085
:100D600042EA0506474DAE60ED682C404E6816F429
:100D7000001F01D042EA0504424AD46001330A68E8
:100D800032FA03F478D001249C402240F6D04D681A
:100D9000022D01D0122D10D1DE08083650F826C0E1
:100DA00003F00705AF000F25BD402CEA050C0D69C7
:100DB000BD4045EA0C0540F8265006685F00032553
:100DC000BD40ED4305EA060C4E6806F00306BE4042
:100DD00046EA0C0606604E6806F1FF3CBCF1010FC6
:100DE00003D9112E01D0122E10D1866805EA060C07
:100DF000CE68BE4046EA0C068660466826EA0404D1
:100E00004E68C6F300169E4026434660C4682540DF
:100E10008C68BC402C43C4604C6814F0805FADD03B
:100E2000194CA56945F00105A561A46904F0010408
:100E30000194019C9D08AE1C114C54F8267003F0DF
:100E40000304A6000F24B44027EA0407B0F1904F32
:100E50003FF460AF0D4CA0420AD004F58064A0427C
:100E600008D004F58064A0423FF452AF052452E755
:100E7000012450E702244EE702B0F0BC704700BFE7
:100E8000000001400004014000100240000400483E
:100E9000002800F00D8370B582B00446036813F09B
:100EA000010F3BD0B54B5B6803F00C03042B1ED045
:100EB000B24B5B6803F00C03082B13D06368B3F5E7
:100EC000803F68D0002B40F0928003F1804303F50F
:100ED00004331A6822F480321A601A6822F48022DD
:100EE0001A605DE0A54B5B6813F4803FE6D04FF4D9
:100EF000003393FAA3F3A14B19684FF4003393FA2C
:100F0000A3F3B3FA83F303F01F03012202FA03F3FE
:100F10000B4203D06368002B00F0CC82236813F0EF
:100F2000020F00F0C680954B5B6813F00C0F00F0C9
:100F30009C80924B5B6803F00C03082B00F08F80C1
:100F40002369002B00F0F380012292FAA2F3B3FA96
:100F500083F303F1845303F584139B001A60FFF7B6
:100F6000C9F90546022393FAA3F3844B19680223B7
:100F700093FAA3F3B3FA83F303F01F03012202FAF7
:100F800003F30B4240F0C480FFF7B4F9401B022882
:100F9000E8D9032095E2794A136843F4803313605B
:100FA000764AD36A23F00F03A1680B43D3626368C8
:100FB000002B36D0FFF79EF905464FF4003393FA25
:100FC000A3F36E4B19684FF4003393FAA3F3B3FA0B
:100FD00083F303F01F03012202FA03F30B429DD1B6
:100FE000FFF788F9401B6428E7D9032069E2B3F5CD
:100FF000A02F09D0614B1A6822F480321A601A6857
:1010000022F480221A60CBE703F18043A3F53C333E
:101010001A6842F480221A601A6842F480321A6018
:10102000BEE7FFF767F905464FF4003393FAA3F3E1
:10103000524B19684FF4003393FAA3F3B3FA83F3D6
:1010400003F01F03012202FA03F30B423FF466AFE1
:10105000FFF750F9401B6428E6D9032031E2474BE3
:101060005B6813F4803F7FF46BAF022393FAA3F322
:10107000424B1968022393FAA3F3B3FA83F303F004
:101080001F03012202FA03F30B4204D023699342A7
:1010900001D0012015E23948036823F0F8036169A3
:1010A000F82292FAA2F2B2FA82F201FA02F21343A1
:1010B0000360236813F0080F00F08C80A369002BF5
:1010C00060D0012191FAA1F2B2FA82F22C4B1344C2
:1010D0009B001960FFF70EF90546022393FAA3F26D
:1010E00093FAA3F293FAA3F2244A516A93FAA3F370
:1010F000B3FA83F303F01F03012202FA03F30B4256
:1011000068D1FFF7F7F8401B0228E6D90320D8E1A1
:101110001A48036823F0F8036169F82292FAA2F2F0
:10112000B2FA82F201FA02F213430360C1E701232B
:1011300093FAA3F3B3FA83F303F1845303F584130F
:101140009B0000221A60FFF7D5F80546022393FAA8
:10115000A3F30A4B1968022393FAA3F3B3FA83F3B8
:1011600003F01F03012202FA03F30B42A1D0FFF7A1
:10117000C1F8401B0228E9D90320A2E10010024077
:1011800020819010012292FAA2F2B2FA82F2BC4BB4
:1011900013449B0000221A60FFF7ACF805460223B7
:1011A00093FAA3F293FAA3F293FAA3F2B54A516A1F
:1011B00093FAA3F3B3FA83F303F01F03012202FAB5
:1011C00003F30B4206D0FFF795F8401B0228E6D93F
:1011D000032076E1236813F0040F00F0B380A94BDD
:1011E000DB6913F0805F20D1A64BDA6942F08052B0
:1011F000DA61DB6903F080530193019B0125A24B67
:101200001B6813F4807F12D0E368012B23D073BBDB
:1012100003F1804303F504331A6A22F001021A62D3
:101220001A6A22F004021A621AE00025E7E7964AD9
:10123000136843F480731360FFF75CF80646924B23
:101240001B6813F4807FDFD1FFF754F8801B6428FC
:10125000F5D9032035E18B4A136A43F00103136289
:10126000E368002B41D0FFF745F806462BE0052B3D
:1012700009D0844B1A6A22F001021A621A6A22F01B
:1012800004021A62ECE77F4B1A6A42F004021A6207
:101290001A6A42F001021A62E2E77A4B196A0223E3
:1012A00093FAA3F3B3FA83F303F01F03012202FAC4
:1012B00003F3194245D1FFF71DF8801B41F2883333
:1012C000984200F2F980022393FAA3F293FAA3F36F
:1012D000B3FA83F35B0943F00203022BDDD0022350
:1012E00093FAA3F3674B596AD9E7FFF703F8064669
:1012F00015E0644B196A022393FAA3F3B3FA83F35C
:1013000003F01F03012202FA03F3194219D0FEF77A
:10131000F1FF801B41F28833984200F2CF80022314
:1013200093FAA3F293FAA3F3B3FA83F35B0943F0BE
:101330000203022BDDD0022393FAA3F3514B596A27
:10134000D9E7B5BBE369002B00F0BA804D4A52687B
:1013500002F00C02082A00F09980022B2FD04FF0E7
:10136000807393FAA3F3B3FA83F303F1845303F581
:1013700084139B0000221A60FEF7BCFF04464FF066
:10138000007393FAA3F33F4B19684FF0007393FA7D
:10139000A3F3B3FA83F303F01F03012202FA03F36A
:1013A00019426BD0FEF7A6FF001B0228E7D90320E5
:1013B00087E0344AD36923F08053D361C2E74FF00A
:1013C000807393FAA3F3B3FA83F303F1845303F521
:1013D00084139B0000221A60FEF78CFF05464FF035
:1013E000007393FAA3F3274B19684FF0007393FA35
:1013F000A3F3B3FA83F303F01F03012202FA03F30A
:10140000194206D0FEF776FF401B0228E7D90320D9
:1014100057E01C494B6823F47413626A206A024344
:1014200013434B604FF0807393FAA3F3B3FA83F343
:1014300003F1845303F584139B0001221A60FEF725
:1014400059FF04464FF0007393FAA3F30D4B19684C
:101450004FF0007393FAA3F3B3FA83F303F01F037F
:10146000012202FA03F3194206D1FEF743FF001BE3
:101470000228E7D9032024E0002022E0002020E019
:10148000208190100010024000700040012B1AD003
:101490000F4B5B6803F48031226A914201D0012036
:1014A0000FE003F47013626A93420ED0012008E04B
:1014B00001207047012004E0032002E0032000E047
:1014C000002002B070BD0120FBE70020F9E700BF5B
:1014D0000010024010B4174B5C6804F00C03082B9A
:1014E00026D104F470124FF4701393FAA3F3B3FAF5
:1014F00083F322FA03F31049C85C0E4BDB6A03F056
:101500000F030F2292FAA2F2B2FA82F2D3400B44F6
:101510001A7C14F4803F05D1084B03FB00F05DF802
:10152000044B7047064BB3FBF2F300FB03F0F6E706
:101530000348F4E700100240A82F000800093D000E
:1015400000127A00002800F0C18070B50446614B9B
:101550001B6803F007038B420CD25E4A136823F02A
:1015600007030B431360136803F007038B4201D09A
:10157000012070BD236813F0020F06D0564A53684D
:1015800023F0F003A068034353600D46236813F073
:10159000010F5AD06368012B2DD0022B40D00222BC
:1015A00092FAA2F24C4A1068022292FAA2F2B2FA1D
:1015B00082F202F01F02012101FA02F2104200F051
:1015C000878045494A6822F0030213434B60FEF7C7
:1015D00091FE0646404B5B6803F00C036268B3EB78
:1015E000820F32D0FEF786FE801B41F2883398428C
:1015F000F0D90320BDE74FF4003292FAA2F2364A46
:1016000010684FF4003292FAA2F2B2FA82F202F0BB
:101610001F02012101FA02F20242D2D10120A8E701
:101620004FF0007292FAA2F22B4A10684FF000724B
:1016300092FAA2F2B2FA82F202F01F02012101FA3A
:1016400002F21042BDD1012093E7224B1B6803F048
:101650000703AB420CD91F4A136823F007032B433F
:101660001360136803F00703AB4201D0012080E749
:10167000236813F0040F06D0174A536823F4E0637D
:10168000E1680B435360236813F0080F07D0124A38
:10169000536823F46053216943EAC1035360FFF7A1
:1016A00019FF0D4B5B6803F0F003F02292FAA2F2EF
:1016B000B2FA82F2D340094AD35CD840084B186092
:1016C000084B1868FEF7D4FD002052E70120704750
:1016D00001204EE70020024000100240C82F000801
:1016E0000800002004000020014B1868704700BF6C
:1016F0000800002008B5FFF7F7FF074B5B6803F40D
:10170000E0634FF4E06292FAA2F2B2FA82F2D340BE
:10171000024AD35CD84008BD00100240D82F000810
:1017200008B5FFF7E1FF074B5B6803F460534FF424
:10173000605292FAA2F2B2FA82F2D340024AD35C29
:10174000D84008BD00100240D82F0008F0B583B083
:101750000446036813F4803F44D05F4BDB6913F009
:10176000805F6ED15C4BDA6942F08052DA61DB69EE
:1017700003F080530193019B0125584B1B6813F420
:10178000807F60D0544B1B6A13F4407321D0626891
:1017900002F440729A421CD04F48016A21F440760C
:1017A0004FF4803393FAA3F2B2FA82F24C4F3A44E8
:1017B00092004FF0010CC2F800C093FAA3F3B3FA01
:1017C00083F33B449B0000221A60066211F0010F74
:1017D0004DD1414A136A23F4407361680B4313628D
:1017E000002D6FD1236813F0010F06D03A4A136B16
:1017F00023F00303A1680B431363236813F0200F46
:1018000006D0354A136B23F01003E1680B431363D2
:10181000236813F0800F06D02F4AD36A23F4F8739D
:1018200021690B43D362236813F4805F51D02A4AA5
:10183000136B23F4807361690B431363002003B0BF
:10184000F0BD002599E7254A136843F480731360BF
:10185000FEF750FD0646214B1B6813F4807F91D1A3
:10186000FEF748FD801B6428F5D90320E7E7FEF763
:1018700041FD064614E0184B196A022393FAA3F3BC
:10188000B3FA83F303F01F03012202FA03F30B42BE
:101890009FD1FEF72FFD801B41F28833984216D866
:1018A000022393FAA3F293FAA3F3B3FA83F35B0947
:1018B00043F00203022BDED0022393FAA3F3064B7C
:1018C000596ADAE7D36923F08053D3618AE70320AA
:1018D000B5E70020B3E700BF0010024000700040F1
:1018E0000081901010B50446836802691343426971
:1018F0001343C2691343016808686C4A02401343EA
:101900000B602268536823F44053E1680B43536033
:10191000A269236A1A4321688B6823F43063134356
:101920008B602368624A934215D0624A934228D062
:1019300002F58062934220D01023E269B2F5004F95
:1019400021D0082B00F2AB80DFE803F06C818BA97B
:1019500096A9A9A9A000584B1B6B03F00303032B06
:1019600009D8DFE803F00204060C0023E5E70423AE
:10197000E3E70823E1E71023DFE70023DDE70223A5
:10198000DBE70023D9E7082B49D8DFE803F0051E81
:101990002948344848483F00FFF7ACFE62685308C6
:1019A00003EB4003B3FBF2F39BB20020A3F1100161
:1019B0004FF6EF72914275D89AB222F00F02C3F33C
:1019C000420313432268D3603DE0FFF7A9FE62683B
:1019D000530803EB4003B3FBF2F39BB20020E5E7AF
:1019E0006268530803F5740303F51053B3FBF2F375
:1019F0009BB20020DAE7FFF76DFD6268530803EB46
:101A00004003B3FBF2F39BB20020CFE762685308B8
:101A100003F58033B3FBF2F39BB20020C6E701204D
:101A20000023C3E7FFF766FE626800EB5203B3FBD7
:101A3000F2F39BB20020A3F110014FF6EF72914236
:101A400032D82268D36000232366636610BDFFF797
:101A500067FE626800EB5203B3FBF2F39BB2002017
:101A6000E9E76268530803F5F40303F59053B3FB09
:101A7000F2F39BB20020DEE7FFF72CFD626800EB7B
:101A80005203B3FBF2F39BB20020D4E76268530821
:101A900003F50043B3FBF2F39BB20020CBE7012038
:101AA0000023C8E70120CEE70120CCE7F369FFEF70
:101AB000003801400044004000100240436A13F027
:101AC000010F06D00268536823F40033816A0B4388
:101AD0005360436A13F0020F06D00268536823F480
:101AE0008033C16A0B435360436A13F0040F06D07E
:101AF0000268536823F48023016B0B435360436AED
:101B000013F0080F06D00268536823F40043416BBA
:101B10000B435360436A13F0100F06D002689368BA
:101B200023F48053816B0B439360436A13F0200FBF
:101B300006D00268936823F40053C16B0B43936093
:101B4000436A13F0400F0AD00268536823F48013ED
:101B5000016C0B435360036CB3F5801F0BD0436AD9
:101B600013F0800F06D00268536823F40023816CC1
:101B70000B43536070470268536823F4C003416C01
:101B80000B435360EBE72DE9F04104460F46164640
:101B90009846069D2368DB6937EA03030CBF0123DF
:101BA0000023B3423AD1B5F1FF3FF3D0FEF7A2FBD9
:101BB000A0EB0800A8421FD8F5B123681A6812F0FC
:101BC000040FE7D0DA6912F4006FE3D04FF400623B
:101BD0001A622268136823F4D07313602268936832
:101BE00023F00103936020236367A367E367002367
:101BF00084F87030032012E02268136823F4D07355
:101C000013602268936823F00103936020236367C5
:101C1000A367002384F87030032000E00020BDE8B3
:101C2000F0812DE9F04182B01E46436F202B55D143
:101C300004460D469046002955D0002A55D090F80C
:101C40007030012B53D0012380F870300023C3671C
:101C500021234367FEF74EFB0746A4F85080A4F803
:101C60005280A368B3F5805F02D04FF0000813E004
:101C7000236913B14FF000080EE0A84600250BE0E1
:101C800038F8023B2268C3F308031385B4F85230D6
:101C9000013B9BB2A4F85230B4F852309BB273B1FE
:101CA00000963B46002280212046FFF76CFF00BBD8
:101CB000002DE5D0236815F8012B1A85E6E700967C
:101CC0003B46002240212046FFF75DFF034690B9C6
:101CD00020226267002284F8702000E00223184668
:101CE00002B0BDE8F0810123F9E70123F7E7022301
:101CF000F5E70323F3E70323F1E730B583B00446A8
:101D00000023C367FEF7F6FA054623681B6813F045
:101D1000080F0CD123681B6813F0040F15D1202382
:101D20006367A367002084F8700003B030BD6FF0D4
:101D30007E430093034600224FF400112046FFF734
:101D400022FF0028E6D00320EFE76FF07E430093E8
:101D50002B4600224FF480012046FFF714FF002895
:101D6000DDD00320E1E768B310B50446436F03B349
:101D7000242363672268136823F00103136020465D
:101D8000FFF7B0FD012813D0636ABBB9226853681E
:101D900023F4904353602268936823F02A039360EE
:101DA0002268136843F0010313602046FFF7A5FF84
:101DB00010BD80F8703000F017F9D9E72046FFF722
:101DC0007DFEE3E70120704782B0064B5A6942F47A
:101DD00000325A615B6903F400330193019B02B046
:101DE000704700BF0010024008B50948094B036066
:101DF0004FF4E133436000238360C36003610C222E
:101E000042618361C36103624362FFF7ACFF08BDB7
:101E1000F00000200044004070B586B0002400941B
:101E200001940294039404940594114D114B2B607A
:101E30006C60AC602C6101266E7685F82040EC6207
:101E4000AE62EC60EE6185F8304004236B612C7665
:101E50006C632846FEF7E4FA009601960394029418
:101E60000494059469462846FEF73AFD06B070BD15
:101E7000A00000200001005000B583B002A901F8C5
:101E8000010D01231A460348FFF7CBFE03B05DF8AE
:101E900004FB00BFF000002030B597B020220021E5
:101EA0000DA800F089F900240794089409940A9475
:101EB0000B940194029403940494059406940225CF
:101EC0000C95012310931023119313954FF4601375
:101ED00015930CA8FEF7DCFF0F23079308950994D0
:101EE0004FF480630A930B94294607A8FFF72AFB57
:101EF000802301934FF48073059301A8FFF726FC1C
:101F000017B030BD10B5FEF7D7F9FFF7C5FFFFF7E3
:101F10005BFFFFF769FFFFF77FFF0D4C00212046B5
:101F2000FEF797FC2046FEF785FB03E04FF47A703E
:101F3000FEF7E6F90A210648FEF7FEFB0028F5D178
:101F40000348FEF783FC0146024800F03DF9EDE747
:101F5000A0000020E02F000882B00A4B9A6942F0EE
:101F600001029A619A6902F001020092009ADA690C
:101F700042F08052DA61DB6903F080530193019BE8
:101F800002B070470010024000B589B000230393EF
:101F900004930593069307930268114B9A4202D06B
:101FA00009B05DF804FB0F4B5A6942F080525A6148
:101FB0005A6902F080520192019A5A6942F4003241
:101FC0005A615B6903F400330293029B102303936D
:101FD0000323049303A94FF09040FEF795FEDFE73B
:101FE000000100500010024000B589B000230393A7
:101FF00004930593069307930268144B9A4202D008
:1020000009B05DF804FB03F5E633DA6942F4003207
:10201000DA61DA6902F400320192019A5A6942F4F3
:1020200000325A615B6903F400330293029B48F269
:1020300004030393022304930323069307230793C4
:1020400003A94FF09040FEF75FFED9E7004400403F
:102050007047FEE7FEE7FEE7FEE770477047704710
:1020600008B5FEF73BF908BD70B50D4616460024CD
:1020700004E0AFF30080287001340135B442F8DB8E
:10208000304670BD70B51646002405E04D1C08783A
:10209000FFF7F2FE01342946B442F7DB304670BD4B
:1020A00008B503460B4A126842B10A4A1068034455
:1020B0006A46934206D8074A136008BD054A064996
:1020C0001160F2E700F04EF80C2303604FF0FF3090
:1020D000F3E700BF8C000020780100204FF0FF30B4
:1020E00070474FF400534B60002070470120704749
:1020F00000207047054BD3F8882042F47002C3F8E3
:1021000088204FF000629A60704700BF00ED00E049
:10211000DFF834D0002103E00C4B5B58435004310E
:102120000B480C4B42189A42F6D30B4A02E00023AC
:1021300042F8043B094B9A42F9D3FFF7DBFF00F06A
:1021400017F8FFF7DFFEFEE70030002088300008B8
:1021500000000020700000207000002074010020AA
:10216000FEE70000014B1868704700BF0C0000201C
:1021700070B50D4E0D4CA41BA4100025A54209D12D
:102180000B4E0C4C00F004FFA41BA4100025A5422C
:1021900005D170BD56F8253098470135EEE756F861
:1021A000253098470135F2E780300008803000087C
:1021B000803000088430000802440346934200D176
:1021C000704703F8011BF9E70FB40A4B13B51C68FD
:1021D00024B1A36913B9204600F04EF805AB049A68
:1021E000A1680193204600F055F902B0BDE8104007
:1021F00004B070470C000020002310B50446C0E96D
:102200000033836081814366C281C0E90433836106
:10221000194608225C30FFF7CFFF054B6362054B80
:10222000A362054BE362054B2462236310BD00BF2C
:10223000F1290008132A00084B2A00086F2A000819
:10224000014900F085B800BF492D000870B54A1E4D
:10225000682555430E4605F1740100F097F80446D1
:1022600040B10021C0E900160C30A06005F1680201
:10227000FFF7A2FF204670BD836910B5044633BB4B
:10228000C0E912330365124B124A1B6882629842FE
:1022900004BF0123836100F01FF86060204600F056
:1022A0001BF8A060204600F017F80022E06004212F
:1022B0006068FFF7A1FF01220921A068FFF79CFFDA
:1022C00002221221E068FFF797FF0123A36110BDEE
:1022D000E82F000841220008F8B51B4B1E68B369BF
:1022E000074613B93046FFF7C7FF4836D6E9013431
:1022F000013B03D5336833B13668F7E7B4F90C50C6
:102300006DB16834F4E704213846FFF79FFF306071
:102310000028F1D10C233B6004462046F8BD0B4B4E
:102320006566C4E90055A560C4E90335C4E90555EF
:102330000822294604F15C00FFF73EFFC4E90D5571
:10234000C4E91255E9E700BFE82F00080100FFFFCC
:102350002DE9F8438046894600F14804002614B967
:102360003046BDE8F883D4E90175013F01D5246802
:10237000F5E7AB89012B07D9B5F90E30013303D04E
:1023800029464046C84706436835EEE770B5CD1C80
:1023900025F0030508350C2D38BF0C25002D064609
:1023A00001DBA94203D90C233360002070BD00F08B
:1023B0006BFD214A1468214691B9204C23681BB952
:1023C000304600F005FB20602946304600F000FB57
:1023D000431C24D10C233360304600F056FDE4E763
:1023E0000B685B1B18D40B2B0FD90B60CD50CC188E
:1023F000304600F04AFD04F10B00231D20F00700D9
:10240000C31AD3D05A42E250D0E78C424B6816BF71
:10241000636013600C46EBE70C464968CCE7C41CCC
:1024200024F00304A04205D0211A304600F0D0FA6F
:102430000130CFD02560DBE7940000209800002019
:102440009368013B002B10B4936008DA9469A342AF
:1024500001DB0A2903D15DF8044B00F00DBB1368C2
:10246000581C1060197008465DF8044B7047F8B5A9
:1024700006460F461446D518AC4201D1002007E0AD
:102480003A4614F8011B3046FFF7DAFF431CF3D13C
:10249000F8BD00002DE9F04F0C469DB017461D46D3
:1024A000064618B183690BB9FFF7E6FE7C4B9C42E8
:1024B00058D17468A38918075ED52369002B5BD0B7
:1024C0000023099320238DF8293030238DF82A30FA
:1024D00003954FF0010BB846454615F8013B0BB18B
:1024E000252B54D1B8EB070A0BD053463A46214668
:1024F0003046FFF7BCFF013000F0C280099B534417
:10250000099398F80030002B00F0BA8000234FF0B8
:10251000FF32CDE90523049307938DF853301A93C6
:10252000A846052218F8011B5E48FDF751FE049BE2
:1025300078BBD90644BF20228DF853201A0744BF28
:102540002B228DF853202A782A2A2AD0079AA846C7
:1025500000200A25414611F8013B303B092B69D97F
:1025600060B324E0504B9C4201D1B468A2E74F4BCA
:102570009C4208BFF4689DE72146304600F0E0FA2F
:1025800000289DD04FF0FF301DB0BDE8F08FA84669
:10259000A2E7444A801A0BFA00F01843049045461B
:1025A000BEE7039A111D12680391002A01DB07920E
:1025B00004E0524243F002030792049398F800307B
:1025C0002E2B0ED198F801302A2B38D1039B1A1DDF
:1025D0001B680392002BB8BF4FF0FF3308F10208CD
:1025E0000593334D98F8001003222846FDF7F0FDBF
:1025F00040B14023401B03FA00F0049B034308F161
:102600000108049398F800102A488DF82810062233
:1026100008F10107FDF7DCFD002837D0264B1BBB76
:10262000039B073323F0070308330393099B4B44B1
:10263000099350E705FB0232012088468AE7002310
:1026400008F10108059319460A25404610F8012BA8
:10265000303A092A03D9002BC3D00591C1E705FB05
:10266000012101238046F0E703AB00932246134B80
:1026700004A93046AFF30080B0F1FF3F8146D5D1C9
:10268000A3895B063FF57EAF09987DE703AB009316
:1026900022460A4B04A9304600F088F8ECE700BF58
:1026A0000C3000084C3000082C300008EC2F0008DB
:1026B0005230000856300008000000006F24000867
:1026C0002DE9F04791461F468A680B69DDF82080A6
:1026D0009342B8BF1346C9F8003091F8432006462C
:1026E0000C4612B10133C9F800302368990642BF85
:1026F000D9F800300233C9F80030256815F0060516
:1027000007D104F1190AE368D9F800209B1AAB42FB
:1027100028DC94F843302268003318BF0123920666
:102720002DD404F1430239463046C047013020D051
:102730002368E568D9F8002003F00603042B08BFDE
:10274000AD1AA36822690CBF25EAE57500259342FE
:10275000C4BF9B1AED184FF000091A344D451AD129
:10276000002008E00123524639463046C047013078
:1027700003D14FF0FF30BDE8F0870135C3E7E11822
:102780005A1C302081F84300224494F8451082F806
:1027900043100233C5E70123224639463046C0477D
:1027A0000130E6D009F10109D8E700002DE9F04336
:1027B00001F1430C0C46097E85B06E29174606468A
:1027C00098460C9A00F0B38022D8632936D00AD8F4
:1027D000002900F0B980582900F0838004F14205F7
:1027E00084F8421032E0642901D06929F6D12068CA
:1027F0001368050603F104012AD51B681160002B3C
:1028000003DA2D225B4284F843206F480A2239E024
:10281000732900F09D8008D86F2920D07029DDD160
:10282000236843F02003236003E0752917D078293B
:10283000D4D1782384F84530644855E01368191DD5
:102840001B68116004F1420584F8423001238CE0DA
:102850001B68116010F0400F18BF1BB2CFE7136860
:102860002568181D1060280601D51B6802E068065F
:10287000FBD51B8854486F2914BF0A220822002167
:1028800084F843106568A560002DC0F2958021682A
:1028900021F004012160002B3DD1002D40F08E80FD
:1028A0006546082A0BD12368DB0708D523696268CF
:1028B0009A42DEBF302305F8013C05F1FF35ACEB51
:1028C00005032361CDF800803B4603AA214630462C
:1028D000FFF7F6FE01304DD14FF0FF3005B0BDE8F7
:1028E000F083394884F84510136821681D1D1B6862
:1028F00015600A060BD5CA0744BF41F020012160CC
:102900001BB9226822F0200222601022B7E74D0690
:1029100048BF9BB2EFE76546B3FBF2F102FB113310
:10292000C35C05F8013D0B460029F5D1B9E71368F2
:1029300025686169181D106028061B6801D519609B
:1029400002E06A06FBD51980002323616546B9E7DA
:102950001368191D11601D68626800212846FDF783
:1029600037FC08B1401B606063682361002384F872
:102970004330A7E723692A4639463046C04701302D
:10298000AAD023689B0713D4E068039B9842B8BF82
:102990001846A3E701234A4639463046C04701306E
:1029A0009AD00135E368039A9B1AAB42F2DCEBE75D
:1029B000002504F11909F5E7002BACD1037884F860
:1029C000423004F142056CE75D3000086E300008CB
:1029D00038B5064C0023054608462360FFF760FB28
:1029E000431C02D1236803B12B6038BD7001002065
:1029F00010B50C46B1F90E1000F096FA0028ABBFE6
:102A0000636DA3891B1823F48053ACBF6365A38156
:102A100010BD2DE9F0411F468B89DB0505460C46AC
:102A2000164605D502230022B1F90E1000F0B6F9C2
:102A3000A389B4F90E1023F48053A38132463B4698
:102A40002846BDE8F04100F069B810B50C46B1F970
:102A50000E1000F0A3F9431CA38915BF606523F491
:102A6000805343F48053A38118BFA38110BDB1F9F3
:102A70000E1000F0D3B80000F8B50E461446054617
:102A800018B183690BB9FFF7F7FB214B9C422AD1A0
:102A90006C68A369A360A3891A072ED5236963B361
:102AA00023692068C01A6369F6B28342374604DCA2
:102AB0002146284600F048F928BBA368013BA360E3
:102AC00023685A1C22601E7063690130834204D05F
:102AD000A389DB0719D50A2E17D12146284600F015
:102AE00033F990B10FE00B4B9C4201D1AC68D0E7B9
:102AF000094B9C4208BFEC68CBE72146284600F012
:102B00001FF80028CCD04FF0FF373846F8BD00BF83
:102B10000C3000082C300008EC2F000838B5074CAA
:102B2000054608461146002222601A46FFF7AAFA17
:102B3000431C02D1236803B12B6038BD7001002013
:102B4000324B70B51D6806460C4625B1AB6913B90A
:102B50002846FFF791FB2E4B9C420FD16C68B4F9CD
:102B60000C309AB215072CD4D00611D40922326049
:102B700043F04003A3814FF0FF303EE0254B9C42E1
:102B800001D1AC68EBE7244B9C4208BFEC68E6E758
:102B9000510712D5616B41B104F14403994202D04F
:102BA000304600F073F900236363A38923F0240304
:102BB000A3810023636023692360A38943F0080392
:102BC000A38123694BB9A38903F42073B3F5007F74
:102BD00003D02146304600F017F9A28912F0010314
:102BE0000CD00023A36063695B42A361236953B9DE
:102BF000B4F90C3013F08000BAD170BD920758BF01
:102C00006369A360F2E70020F7E700BF0C00002033
:102C10000C3000082C300008EC2F000838B5064CAA
:102C20000023054608462360FFF758FA431C02D1EB
:102C3000236803B12B6038BD700100208A892DE91B
:102C4000F041054610070C4658D44B68002B05DCB4
:102C50000B6C002B02DC0020BDE8F081E66A002E40
:102C6000F9D0002312F480522F68216A2B6032D0F1
:102C7000606DA3895A0705D56368C01A636B0BB1F1
:102C8000236CC01A00230246E66A216A2846B04730
:102C9000431CA38906D129681D2948D8294ACA405E
:102CA000D60744D500226260D9042269226004D587
:102CB000421C01D12B6803B96065616B2F6000294C
:102CC000C9D004F14403994202D0284600F0DEF84E
:102CD00000206063C0E701232846B047411CC8D1EB
:102CE0002B68002BC5D01D2B01D0162B01D12F60D6
:102CF000B1E7A38943F04003A381ADE70F69002F3B
:102D0000A9D093070E6808BF4B690F6018BF002356
:102D1000A6EB07088B60B8F1000F9CDD43463A46EE
:102D2000216AA66A2846B047002806DCA38943F03A
:102D30004003A3814FF0FF308EE70744A8EB000863
:102D4000E9E700BF0100402038B50B6905460C4695
:102D5000DBB118B183690BB9FFF78EFA0C4B9C42BB
:102D600009D16C68B4F90C307BB121462846BDE826
:102D70003840FFF763BF074B9C4201D1AC68F1E7D5
:102D8000054B9C4208BFEC68ECE7002038BD00BF53
:102D90000C3000082C300008EC2F000838B5074C28
:102DA000054608461146002222601A46FFF7A0F9A0
:102DB000431C02D1236803B12B6038BD7001002091
:102DC00070B50E46B1F90E10002996B014461D4696
:102DD00007DA00232B60B3891A0610D44FF48063FE
:102DE0000EE06A4600F0B2F80028F2DB019A02F425
:102DF0007042A2F500535A425A412A60EEE740233E
:102E00000020236016B070BD8B8973B59D07064600
:102E10000C4607D504F14703236023610123636156
:102E200002B070BD01AB6A46FFF7CAFF00990546C4
:102E30003046FFF7ABFA48B9B4F90C309A05EFD435
:102E400023F0030343F00203A381E3E70D4BB362D6
:102E5000A389206043F08003A381009B6361019BF1
:102E600020615BB1B4F90E10304600F081F828B152
:102E7000A38923F0030343F00103A381A3891D4326
:102E8000A581CDE7412200087047704738B5054657
:102E9000002945D051F8043C0C1F002BB8BFE418A2
:102EA000FFF7F2FF1F4A1368104633B963601460DE
:102EB0002846BDE83840FFF7E8BFA3420CD9216897
:102EC0006218934204BF1A685B68636004BF5218BB
:102ED00022600460ECE713465A680AB1A242FAD9AC
:102EE00019685818A0420BD1206801445818824232
:102EF0001960DDD1106852685A6001441960D7E743
:102F000002D90C232B60D3E7206821188A4204BF22
:102F100011685268626004BF091821605C60C7E7ED
:102F200038BD00BF9400002038B5074C0546084660
:102F30001146002222601A46FFF796F8431C02D180
:102F4000236803B12B6038BD7001002038B5074CF1
:102F500000230546084611462360FFF7C2F8431CCC
:102F600002D1236803B12B6038BD00BF700100207F
:102F700038B5064C0023054608462360FFF7B6F82F
:102F8000431C02D1236803B12B6038BD70010020BF
:102F9000F8B500BFF8BC08BC9E467047F8B500BF46
:082FA000F8BC08BC9E46704716
:102FA80002030405060708090A0B0C0D0E0F101082
:102FB8000102030405060708090A0B0C0D0E0F1081
:102FC80000000000000000000102030406070809D1
:102FD800000000000102030425640A0D000000003F
:102FE80010000020000000000000000000000000A9
:102FF80000000000000000000000000000000000C9
:1030080000000000000000000000000000000000B8
:1030180000000000000000000000000000000000A8
:103028000000000000000000000000000000000098
:103038000000000000000000000000000000000088
:1030480000000000232D302B2000686C4C006566C2
:1030580067454647003031323334353637383941E1
:1030680042434445460030313233343536373839F7
:083078006162636465660000FB
:04308000B50100088E
:0430840091010008AE
:10308800010000001000000000127A00100000206B
:10309800000000000C3000082C300008EC2F00085D
:1030A8000000000000000000000000000000000018
:1030B8000000000000000000000000000000000008
:1030C80000000000000000000000000000000000F8
:1030D80000000000000000000000000000000000E8
:1030E80000000000000000000000000000000000D8
:0400000508002111BD
:00000001FF
